:020000040000FA
:020000000D28C9
:040002000034003492
:08000800A000030EA100210E6F
:100010008300A00E200E0900080083160030850022
:100020009F010430810000308B008312073099005B
:1000300045202C2047202C204C202C2057202C20E1
:1000400068202C207F202C209C202C20BF202C20BE
:10005000E8202C20172118280D30A200AB30A30077
:10006000000000000000000000000000A30B30288A
:10007000A20B2E2808000130A2000A30A3000000C5
:10008000A30B3F28A20B3D28080005110800051509
:100090003B2000000511080005153B20000005115C
:1000A0003B20000005153B20000005110800051548
:1000B0003B20000005113B20000005153B200000FF
:1000C00005113B20000005153B200000051108002C
:1000D00005153B20000005113B20000005153B20C5
:1000E000000005113B20000005153B200000051114
:1000F0003B20000005153B200000051108000515F8
:100100003B20000005113B20000005153B200000AE
:1001100005113B20000005153B20000005113B2088
:10012000000005153B20000005113B2000000515CF
:100130003B2000000511080005153B2000000511BB
:100140003B20000005153B20000005113B2000006E
:1001500005153B20000005113B20000005153B2044
:10016000000005113B20000005153B200000051193
:100170003B20000005153B20000005110800051577
:100180003B20000005113B20000005153B2000002E
:1001900005113B20000005153B20000005113B2008
:1001A000000005153B20000005113B20000005154F
:1001B0003B20000005113B20000005153B200000FE
:1001C00005113B20000005153B200000051108002B
:1001D00005153B20000005113B20000005153B20C4
:1001E000000005113B20000005153B200000051113
:1001F0003B20000005153B20000005113B200000BE
:1002000005153B20000005113B20000005153B2093
:10021000000005113B20000005153B2000000511E2
:100220003B20000005153B200000051108000515C6
:100230003B20000005113B20000005153B2000007D
:1002400005113B20000005153B20000005113B2057
:10025000000005153B20000005113B20000005159E
:100260003B20000005113B20000005153B2000004D
:1002700005113B20000005153B20000005113B2027
:10028000000005153B20000005113B20000005156E
:080290003B20000005110800ED
:02400E00A43FCD
:00000001FF
